:100000000C94682D0C94992D0C94992D0C94992D89
:100010000C94992D0C94992D0C94992D0C94992D48
:100020000C94992D0C94992D0C94992D0C94992D38
:100030000C94992D0C941E720C94992D0C94992D5E
:100040000C94992D0C9467AB0C94992D0C94992DCC
:100050000C94992D0C94992D0C947EDB0C94527E6B
:100060000C94992D0C9454DB0C9424DB0C94992D56
:100070000C94992D0C94992D0C94992D0C94992DE8
:100080000C94992D0C94992D0C94992D0C94992DD8
:100090000C94992D0C94992D0C94992D0C94992DC8
:1000A0000C94992D0C94992D0C94992D0C94992DB8
:1000B0000C94992D0C94992D0C94992D0C94992DA8
:1000C0000C94992D0C94992D0C94992D0C94992D98
:1000D0000C94992D0C94992D0C94992D0C94992D88
:1000E0000C94992DAF31B431B931C531D1315E3273
:1000F000DD31E531ED31F9310532113222322E3266
:100100005E323A3246325232057D087DF77CFB7C06
:10011000017D3F7D0C7D107D167D1A7D1E7D247D29
:10012000287D2C7D3F7D327D367D3A7D937D047E1A
:10013000CC7DC37DD67DDB7DF87DE7880189018993
:10014000018901890189018901890189018901895F
:10015000018901890189018901890189018901894F
:1001600001890189018901898E889E886B885B8855
:10017000F187FD8752877E8833883F88AE88BE88A6
:1001800066873A87CE88248801894F8818880C882A
:10019000018901890189C787D687E2870189018999
:1001A00001890189018901898E889E886B885B8815
:1001B000F187FD8752877E8833883F88AE88BE8866
:1001C00066873A87CE88248801894F8818880C88EA
:1001D000018901890189C787D687E287084AD73B09
:1001E0003BCE016E84BCBFFDC12F3D6C74319ABD06
:1001F00056833DDA3D00C77F11BED9E4BB4C3E912A
:100200006BAAAABE000000803F05A84CCDB2D44E18
:10021000B93836A9020C50B9918688083CA6AAAA1A
:100220002ABE000000803F00456E642066696C6550
:10023000206C69737400426567696E2066696C653D
:10024000206C697374005344207072696E74696E17
:1002500067206279746520004E6F742053442070CB
:1002600072696E74696E670057726974696E67208F
:10027000746F2066696C653A20006F70656E206649
:1002800061696C65642C2046696C653A2000437294
:10029000656174696F6E206661696C6564004469AC
:1002A000726563746F72792063726561746564004E
:1002B000657874727564657220636F6F6C65722007
:1002C0007370656564205B302D3235355D0064697F
:1002D0007374616E636520746F20726574726163FC
:1002E00074207768656E2068656174696E67205B4D
:1002F0006D6D5D0074656D702E20666F7220726585
:100300007472616374696F6E207768656E206865CA
:100310006174696E67205B435D0074656D702E20AB
:1003200073746162696C697A652074696D65205BBC
:10033000735D005A2D6F6666736574205B73746518
:1003400070735D00592D6F6666736574205B7374FE
:100350006570735D00582D6F6666736574205B73FE
:10036000746570735D00504944206D61782076613A
:100370006C7565205B302D3235355D005049442069
:10038000442D6761696E0050494420492D676169B9
:100390006E0050494420502D6761696E2F6465617D
:1003A000642D74696D6500504944206472697665F6
:1003B000206D696E00504944206472697665206D35
:1003C00061780068656174206D616E616765722097
:1003D0005B302D335D00616363656C6572617469C8
:1003E0006F6E205B6D6D2F735E325D007374617292
:1003F00074206665656472617465205B6D6D2F7332
:100400005D006D61782E206665656472617465209B
:100410005B6D6D2F735D0073746570732070657212
:10042000206D6D0052657472616374696F6E207522
:100430006E646F2073706565640045787472612026
:10044000657874727573696F6E206F6E20756E6457
:100450006F2072657472616374205B6D6D5D005214
:10046000657472616374696F6E207A2D6C6966744D
:10047000205B6D6D5D0052657472616374696F6EAF
:10048000207370656564205B6D6D2F735D00526530
:100490007472616374696F6E206C656E6774682036
:1004A0005B6D6D5D00456E61626C65207265747296
:1004B000616374696F6E20636F6E76657273696FC6
:1004C0006E205B302F315D004175746F6C65766511
:1004D0006C206163746976652028312F30290043D0
:1004E0006F6174696E6720746869636B6E6573739E
:1004F000205B6D6D5D005A2D6178697320747261A7
:1005000076656C20616363656C65726174696F6E9A
:10051000205B6D6D2F735E325D00592D61786973BC
:100520002074726176656C20616363656C657261CD
:1005300074696F6E205B6D6D2F735E325D00582D98
:10054000617869732074726176656C20616363659C
:100550006C65726174696F6E205B6D6D2F735E32B6
:100560005D005A2D6178697320616363656C657203
:100570006174696F6E205B6D6D2F735E325D005923
:100580002D6178697320616363656C65726174695C
:100590006F6E205B6D6D2F735E325D00582D61783C
:1005A000697320616363656C65726174696F6E2045
:1005B0005B6D6D2F735E325D005A206D6178206C2B
:1005C000656E677468205B6D6D5D0059206D6178A4
:1005D000206C656E677468205B6D6D5D0058206DE2
:1005E0006178206C656E677468205B6D6D5D005A84
:1005F000206D696E20706F73205B6D6D5D005920FA
:100600006D696E20706F73205B6D6D5D0058206D9D
:10061000696E20706F73205B6D6D5D004D61782E8B
:10062000205A2D6A65726B205B6D6D2F735D004DD6
:1006300061782E206A65726B205B6D6D2F735D0093
:100640005A2D6178697320686F6D696E67206665E1
:10065000656472617465205B6D6D2F735D00592D4B
:100660006178697320686F6D696E6720666565647F
:1006700072617465205B6D6D2F735D00582D61781C
:10068000697320686F6D696E672066656564726165
:100690007465205B6D6D2F735D005A2D61786973F1
:1006A000206D61782E206665656472617465205BDB
:1006B0006D6D2F735D00592D61786973206D6178C0
:1006C0002E206665656472617465205B6D6D2F73A5
:1006D0005D00582D61786973206D61782E20666504
:1006E000656472617465205B6D6D2F735D005A2DBA
:1006F0006178697320737465707320706572206D02
:100700006D00592D61786973207374657073207062
:100710006572206D6D00582D617869732073746562
:10072000707320706572206D6D0053746F7020734C
:1007300074657070657220616674657220696E619F
:1007400063746976697479205B6D732C303D6F66D4
:10075000665D004D61782E20696E6163746976650F
:100760002074696D65205B6D732C303D6F66665D2E
:10077000005072696E7465722061637469766520D9
:100780005B735D0046696C616D656E7420707269A3
:100790006E746564205B6D5D0042617564726174A6
:1007A00065004C616E677561676500504944204182
:1007B00075746F74756E65206661696C656421205F
:1007C00074696D656F757400504944204175746F8C
:1007D00074756E65206661696C6564212054656D71
:1007E000706572617475726520746F6F20686967D7
:1007F0006800204B643A2000204B693A2000204BCF
:10080000703A200020436C6173736963205049443F
:10081000002054753A2000204B753A2000206D616D
:10082000783A2000206D696E3A200020643A20005A
:1008300020626961733A2000504944204175746F09
:1008400074756E65207374617274004E6F206361FD
:100850007365206C6967687473004D617854656DC9
:10086000703A004469616D657465723A0041636372
:10087000656C65726174696F6E3A004D6178537092
:100880006565643A004A65726B3A004D617842656D
:100890006454656D703A005072696E746572547973
:1008A00070653A43617274657369616E005A54727F
:1008B0006176656C416363656C3A00595472617688
:1008C000656C416363656C3A005854726176656C7F
:1008D000416363656C3A005A5072696E7441636398
:1008E000656C3A00595072696E74416363656C3A85
:1008F00000585072696E74416363656C3A005A53D4
:10090000697A653A005953697A653A005853697AA9
:10091000653A005A4D61783A00594D61783A00586D
:100920004D61783A005A4D696E3A00594D696E3AF8
:1009300000584D696E3A0052657472616374696F54
:100940006E556E646F53706565643A0052657472DB
:10095000616374696F6E556E646F45787472614C33
:100960006F6E674C656E6774683A005265747261A9
:100970006374696F6E556E646F45787472614C650F
:100980006E6774683A0052657472616374696F6E61
:100990005A4C6966743A0052657472616374696F87
:1009A0006E53706565643A00526574726163746970
:1009B0006F6E4C6F6E674C656E6774683A00526577
:1009C0007472616374696F6E4C656E6774683A0027
:1009D0004A65726B5A3A004B656570416C69766581
:1009E000496E74657276616C3A004A65726B58594B
:1009F0003A005072696E746C696E65436163686534
:100A00003A00454550524F4D3A004175746F6C6540
:100A100076656C3A005A50726F62653A00436173B2
:100A2000654C69676874733A00537570706F7274BF
:100A30004C6F63616C46696C616D656E746368616F
:100A40006E67653A00537570706F72744731304746
:100A500031313A005A486F6D65506F733A0059480A
:100A60006F6D65506F733A0058486F6D65506F73C6
:100A70003A005A486F6D654469723A0059486F6D83
:100A8000654469723A0058486F6D654469723A006E
:100A9000536F667477617265506F776572537769CB
:100AA0007463683A004C43443A0046616E323A300F
:100AB0000046616E3A005344436172643A004865EF
:100AC000617465644265643A004D6978696E674592
:100AD000787472756465723A004E756D45787472FB
:100AE000756465723A00496E707574427566666524
:100AF000723A0042617564726174653A00436F6EC8
:100B000066696775726174696F6E2072657365746A
:100B100020746F2064656661756C74732E00696E55
:100B2000666F3A436F6E74696E75652066726F6D9D
:100B300020666174616C2073746174650000546593
:100B40007374696E6720666174616C206572726F80
:100B500072004A616D20646562756767696E673A05
:100B600000436F6E66696775726174696F6E206CA1
:100B70006F616465642066726F6D20454550524F09
:100B80004D2E00436F6E66696775726174696F6E92
:100B90002073746F72656420746F20454550524F06
:100BA0004D2E00536574204D6963726F73746570C8
:100BB00070696E6700436F6C64206578747275733A
:100BC000696F6E20646973616C6C6F776564004354
:100BD0006F6C6420657874727573696F6E20616CD8
:100BE0006C6F7765640054726967676572696E67D8
:100BF000207761746368646F672E204966206163A3
:100C0000746976617465642C2074686520707269FB
:100C10006E7465722077696C6C2072657365742ED2
:100C2000005761746368646F672064697361626C04
:100C30006564004175746F726574726163743A0023
:100C4000205A4A65726B3A004A65726B3A0020740A
:100C50006F200053657420766F6C756D65747269D2
:100C60006320657874727573696F6E20666F722089
:100C70006578747275646572200044697361626C92
:100C8000656420766F6C756D657472696320657834
:100C900074727573696F6E20666F722065787472F6
:100CA000756465722000205A533A002059533A0067
:100CB00058533A004D3131342000544F47474C458A
:100CC0005F4C49474854533A3000534F46545741BC
:100CD00052455F504F5745523A31005A5F50524F7C
:100CE00042453A30004155544F4C4556454C3A30F8
:100CF00000454550524F4D3A30004155544F5245F2
:100D0000504F52545F54454D503A310050524F4766
:100D1000524553533A31004649524D574152455F6F
:100D20004E414D453A52657065746965725F312E6A
:100D3000302E30646576204649524D574152455F0A
:100D400055524C3A68747470733A2F2F67697468FF
:100D500075622E636F6D2F72657065746965722F91
:100D600052657065746965722D4669726D7761723E
:100D7000652F2050524F544F434F4C5F56455253AE
:100D8000494F4E3A312E30204D414348494E455F40
:100D9000545950453A436F72655F5859204558542D
:100DA00052554445525F434F554E543A31205245B7
:100DB0005045544945525F50524F544F434F4C3A5F
:100DC000330050696E2063616E206E6F742062651F
:100DD00020736574206279204D34322C2069732091
:100DE000696E2073656E7369746976652070696ECB
:100DF000732120002069732000496C6C6567616C69
:100E000020532076616C756520666F72204D3432F8
:100E10000020746F2000536574206F7574707574B2
:100E20003A2000000136372603023C3D380E0F2ED3
:100E3000303E12130D0C0A081A1C180D0E35000056
:100E40000000000000890000000000000000880091
:100E5000000000000000008600000000000000000C
:100E60008500470E3E0E590E500E456E676C697335
:100E700068000358040200620E0320040200660E9C
:100E80000000042F0400009B000000042604400022
:100E9000960000000422044000950000000426048F
:100EA00020009A000000042504200099000000049E
:100EB0002404200098000000042304200097000070
:100EC00000042204200094000000042D040000937C
:100ED000000000044C040000BB000000044D0400AE
:100EE00000BC000000042E04000090000000042A52
:100EF0000400008F000000042B0400008E0000009E
:100F0000042C0400008D00000004290400008C0063
:100F10000000041304000055000000041204000047
:100F200054000000041104000053000000041604E3
:100F300000005100000004150400005000000004EF
:100F4000140400004F000000040F040000380000EB
:100F500000040E04000037000000040D04000035FA
:100F6000000000040C04000034000000040B040026
:100F70000033000000040A040000310000000409EE
:100F80000400003000000004080400002F006A0E76
:100F900003A42600000000000003B2040000D000FB
:100FA000000002720E00008700000002790E0000AF
:100FB0008400000004100400008B003014070FFEB2
:100FC0000EF50EEC0EE30EDA0ED10EC80EBF0EB605
:100FD0000EAD0EA40E9B0E920E890E800E30143DA7
:100FE0000F340F2B0F220F190F100F3014850F7CA9
:100FF0000F730F6A0F610F580F4F0F460F30148E8B
:101000000F3014B20FA90FA00F970F0200001100AC
:10101000BB0F0200000700DD0F0200000900EB0F0C
:101020000200000200FD0F02000005000110000098
:1010300003070400003B00000003060400003A0020
:101040000000020B1000000F000000021210000050
:101050004E000000021910000039000000022010AC
:101060000000E400000002271000008A00000003D6
:10107000820400000A01000003810400003F000018
:101080000003800400003E000000037F0400003DD8
:10109000000000037E0400003C00000003B40400D4
:1010A00000D2000000031E04000083000000031DA6
:1010B00004000082000000031C0400008100000006
:1010C000031B04000080000000031A0408007F00D6
:1010D000000004520400007E00000004B60F00006F
:1010E0000901000004B50F00000801000004B40F5E
:1010F0000000070100000000000000F200000000F6
:1011000000000000AB0000000000000000700000C4
:101110000000000000006F000000035424020003E0
:1011200000000003E80300000400000001000000CC
:1011300000C900301464105B105210491040103781
:10114000102E103014911088107F1076106D103012
:1011500014D010C710BE10B510AC10A3109A1030E8
:1011600014EB10E210D9100F110611FD10F4102A23
:1011700011211118110200000800331102000006AD
:1011800000431102000008004F1102000004005F3C
:101190001103F0030400671102000003006F110047
:1011A000000000000000F50000000000000000F456
:1011B0000000000000000000D60000000000000059
:1011C00000D500000002751100000D000000027C37
:1011D0001100001100000002EC15000010000000DA
:1011E00002831100007D00000002B41500000F0012
:1011F000000002AD1500000E00000002BB1500004B
:101200000B0000000000000000F6000000000000DD
:101210000000F40000000000000000D40000000006
:1012200000000000D30000000000000000CF00001C
:10123000000000000000CE0000000000000000CD13
:101240000000000000000000CC000000028A110035
:10125000000601000002D71500002100000002C2B4
:101260001500002200000002DE1500001F00000033
:1012700002C91500002000000002E51500001D0055
:10128000000002D01500001E000000030004001042
:101290001600000003FF0300101500000003FE030A
:1012A00000101400000003440400002E000000029F
:1012B0009111000023000000033A04000028000000
:1012C000000462040000250000000336040000C68C
:1012D00000000003430400101C0000000331040060
:1012E000101B00000003380400001A000000034730
:1012F000040000180000000337040000170000007D
:101300000388130000CB0000000448040000B10073
:101310000000041F040000B0000000045704000097
:10132000CA00000003FD03001013000000000000CD
:1013300000006E00000000000000006D00000000D2
:10134000000000006C00000000000000006B0000C6
:101350000000000000006A000000000000000069BA
:101360000000000000000000680000000000000015
:1013700000670000000000000000660000000000A0
:101380000000006500000000000000006400000094
:101390000000000000630000000000000000620088
:1013A00000000000000000610000000000000000DC
:1013B0006000000000000000005F0000000000006E
:1013C00000005E00000000000000005D0000000062
:1013D000000000005C00000000000000005B000056
:1013E0000000000000005A0000000000000000594A
:1013F0000000000000000000580000000000000095
:10140000005700000003F40301024D0000000298A1
:10141000110200C900000003F70304004A000000A5
:1014200003F60302044900000003F503010248002B
:10143000000003E80300000A0000000000000000B4
:10144000A80000000000000000A70000000000004D
:101450000000A60000000000000000A500BA11B1C5
:1014600011A8119F113014F9112714F011E711DEA2
:1014700011D511CC11C3111D1214120B12021241FD
:101480001238122F122612301422139B1292128934
:1014900012801277126E1265125C125312AD124A4C
:1014A000123014BF12B612AD12A412301422131946
:1014B0001310130713FE12F512EC12E312DA12D115
:1014C00012C81246133D1334132B136A13611358B9
:1014D000134F138E1385137C137313B213A913A028
:1014E000139713D613CD13C413BB13FA13F113E8D8
:1014F00013DF13301427141E1415140C14031430A6
:10150000144214391454144B1400058A1304005D5A
:10151000142F2F20616374696F6E3A726573756D55
:10152000650044656C6574696F6E206661696C6501
:10153000640046696C652064656C657465640002CE
:10154000000009006514526571756573745061750A
:1015500073653A00058913040077140588130400A5
:101560007F142F2F20616374696F6E3A70617573F9
:101570006500696D706F7274616E743A2046696CB3
:10158000616D656E74206368616E67652072657158
:10159000756972656421004A616D20636F6E7472B3
:1015A0006F6C2064697361626C65643A00020000CC
:1015B0000D0087140200000500A1140200000C00B9
:1015C000AB1403FC030400C31403FB030400CB149B
:1015D00003FA030400D31403EF030400DB1403EE47
:1015E000030400E31403ED030400EB1402000006FF
:1015F00000F3140100000100FF1403102702000192
:10160000150310270200051555495F414354494F02
:101610004E5F484F4D455F5A200055495F41435446
:10162000494F4E5F484F4D455F59200055495F4136
:101630004354494F4E5F484F4D455F582000554930
:101640005F414354494F4E5F484F4D45414C4C20FC
:101650000000000000000000F30000000000000097
:1016600000B00000000000000000AA000000000020
:101670000000005F00000000000000005B000000B0
:101680000000000000570000000000000000F30010
:1016900000000000000000F4000000000000000056
:1016A000F10000000000000000C400000000000085
:1016B0000000F00000000000000000C30000000077
:1016C00000000000EA0000000000000000E9000047
:1016D000000000000000E80000000000000000E73B
:1016E0000000000000000000E60000000000000014
:1016F00000E5007E1675166C1663165A165116B460
:1017000016AB16A216991690168716EA16E116D889
:1017100016CF16C616BD160000000600F316000010
:10172000000600FF1600000006000B1757726F6ED0
:101730006720636865636B73756D0025171E171747
:101740001700070A00FE07026903FB00FFFE08FE00
:1017500007FE050707060000A80088008800A80506
:1017600008080600000808082848F840200303037A
:1017700006010440A040050505060000F8F8F8F849
:10178000F8050505060000F8888888F805080806A9
:1017900000002050505070F8F8700705050900004F
:1017A0001CFE8282FE050808060000885020882062
:1017B000508888060808060000489048FCFC7830ED
:1017C00030060808060000244824FCFC7830300667
:1017D0000505060000FCFC78303006020206000019
:1017E000FCFC06060606000048904890FCFC060635
:1017F0000606000024482448FCFC070707070000F1
:101800008244382838448207070707000010103840
:10181000EE381010FFFFFFFFFFFFFFFFFFFFFFFF8E
:10182000FFFFFFFF0000000605FF0107070602009B
:1018300080808080800080030303060104A0A0A0B4
:101840000507070600005050F850F85050050707EC
:101850000600002070A0702870200608080600000E
:1018600044A448102048948805070706000040A0BB
:10187000A040A8906801030306020480808003074B
:1018800007060100204080808040200307070601F2
:10189000008040202020408005050506000188507A
:1018A000F850880505050600012020F820200303D4
:1018B000030601FF604080040101060103F00202FB
:1018C000020601FFC0C00507070600000808102037
:1018D0004080800507070600002050888888502037
:1018E0000507070600002060A0202020F805070754
:1018F000060000708808304080F8050707060000E1
:10190000F8081030088870050707060000103050EE
:1019100090F81010050707060000F880B0C8088886
:1019200070050707060000304080B0C888700507C2
:1019300007060000F80810102040400507070600C1
:101940000070888870888870050707060000708816
:101950009868081060020505060201C0C000C0C0FA
:101960000307070601FF40E04000604080040707CE
:1019700006010010204080402010050303060002ED
:10198000F800F8040707060100804020102040807E
:1019900005070706000070881020200020050707B3
:1019A000060000708898A8B0807005070706000040
:1019B00020508888F88888050707060000F0484806
:1019C000704848F00507070600007088808080880E
:1019D00070050707060000F04848484848F005072A
:1019E00007060000F88080F08080F80507070600F1
:1019F00000F88080F080808005070706000070886E
:101A00008080988870050707060000888888F88815
:101A10008888030707060100E04040404040E00599
:101A20000707060000381010101090600507070621
:101A300000008890A0C0A0908805070706000080DD
:101A40008080808080F80507070600008888D8A875
:101A50008888880507070600008888C8A8988888AD
:101A600005070706000070888888888870050707C2
:101A7000060000F08888F08080800508080600FFD6
:101A80007088888888A87008050707060000F08815
:101A900088F0A0908805070706000070888070080D
:101AA0008870050707060000F82020202020200568
:101AB0000707060000888888888888700507070659
:101AC00000008888885050502005070706000088CD
:101AD0008888A8A8D88805070706000088885020AD
:101AE000508888050707060000888850202020209D
:101AF000050707060000F80810204080F8030707D4
:101B0000060100E08080808080E005070706000075
:101B100080804020100808030707060100E020200D
:101B2000202020E005030306000420508805010161
:101B30000600FFF8020202060206804005050506BF
:101B4000000070087888780507070600008080B0DC
:101B5000C888C8B005050506000070888088700533
:101B600007070600000808689888986805050506B4
:101B700000007088F88070050707060000304840B4
:101B8000F04040400507070600FE788888780888FE
:101B9000700507070600008080B0C88888880307A2
:101BA000070601004000C0404040E004090906016A
:101BB000FE1000301010109090600507070600001E
:101BC00080808890E09088030707060100C04040AD
:101BD000404040E0050505060000D0A8A8A88805FB
:101BE0000505060000B0C8888888050505060000C0
:101BF00070888888700507070600FEB0C888C8B0DE
:101C000080800507070600FE689888986808080520
:101C10000505060000B0C8808080050505060000A7
:101C200070807008F00507070600004040F0404053
:101C30004830050505060000888888986805050570
:101C40000600008888505020050505060000888899
:101C5000A8A85005050506000088502050880507F3
:101C6000070600FE88889868088870050505060044
:101C700000F8102040F8040707060100304020C09B
:101C8000204030010707060200808080808080802D
:101C9000040707060100C02040304020C0050303B0
:101CA00006000448A890FFFFFFFFFFFFFFFFFFFFB4
:101CB000FFFFFFFFFFFFFFFFFFFFFFFFFFFFFFFF34
:101CC000FFFFFFFFFFFFFFFF010707060200800085
:101CD00080808080800507070600FF2078A0A0A0F4
:101CE0007820050707060000304840E04048B0056E
:101CF000050506000088705070880508080600FF7A
:101D000088885020F82020200107070602008080E4
:101D100080008080800508080600FF7080E0904801
:101D2000380870030101060107A005070706000037
:101D30007088A8C8A888700406060601017090B0D3
:101D40005000F006050506000024489048240402CF
:101D500002060102F010FF0507070600007088E880
:101D6000C8C88870050101060007F80303030601CF
:101D70000440A0400506060600002020F82020F8B8
:101D800004050506010360902040F00405050601E6
:101D900003E0106010E00202020602064080FF0528
:101DA000070706000078E8E86828282801010106EE
:101DB0000203800202020602FE40800305050601BE
:101DC0000340C04040E004060606010160909060B8
:101DD00000F0060505060000904824489006090911
:101DE0000600FF40C04040E40C143C04060909060C
:101DF00000FF40C04040E81404081C050909060023
:101E0000FFC0204020C818287808050707060000F2
:101E1000200020204088700508080600004020703F
:101E20008888F888880508080600001020708888CF
:101E3000F888880508080600002050708888F8880F
:101E40008805080806000048B0708888F88888056A
:101E500008080600005000708888F888880508087F
:101E60000600002050708888F8888806070706005A
:101E7000003C50909CF0909C0509090600FE70887B
:101E80008080808870204005080806000040F880A7
:101E900080F08080F805080806000010F88080F0C7
:101EA0008080F805080806000020F88080F0808017
:101EB000F805080806000050F88080F08080F803DC
:101EC00008080601008040E040404040E003080868
:101ED0000601002040E040404040E00308080601C1
:101EE0000040A0E040404040E0030808060100A098
:101EF00000E040404040E0050707060000F0484889
:101F0000E84848F0050808060000285088C8A89846
:101F10008888050808060000402070888888887036
:101F20000508080600001020708888888870050859
:101F30000806000020507088888888700508080608
:101F400000002850708888888870050808060000FE
:101F50005000708888888870050505060000885044
:101F6000205088050707060000709898A8C8C87018
:101F700005080806000040208888888888700508C1
:101F800008060000102088888888887005080806E0
:101F90000000205000888888887005080806000026
:101FA000500088888888887005080806000010207E
:101FB00088885020202005070706000080F088F060
:101FC000808080050707060000708890A09088B088
:101FD0000508080600004020007008788878050889
:101FE00008060000102000700878887805080806A8
:101FF0000000205000700878887805080806000066
:1020000028500070087888780507070600005000FF
:1020100070087888780508080600002050207008AD
:1020200078887806050506000078147C907C050702
:10203000070600FE708880887020400508080600AA
:10204000004020007088F880700508080600001025
:1020500020007088F88070050808060000205000F5
:102060007088F8807005070706000050007088F837
:102070008070030808060100804000C0404040E036
:10208000030808060100408000C0404040E003080B
:102090000806010040A000C0404040E003070706DA
:1020A0000100A000C0404040E0050707060000C056
:1020B000307088888870050808060000285000B035
:1020C000C8888888050808060000402000708888B5
:1020D0008870050808060000102000708888887045
:1020E00005080806000020500070888888700508E0
:1020F00008060000285000708888887005070706C9
:1021000000005000708888887005050506000120D1
:1021100000F800200505050600007898A8C8F0051D
:10212000080806000040200088888898680508088C
:1021300006000010200088888898680508080600B6
:10214000002050008888889868050707060000501E
:102150000088888898680509090600FE102088888C
:1021600098680888700508080600FE80F08888884E
:10217000F080800509090600FE50008888986808EC
:10218000887000050700FF06024803BA00FFFF0839
:10219000FF06FF050505050000A8008800A8050842
:1021A000080600000808082848F840200303030632
:1021B000010440A040050505060000F8F8F8F8F80D
:1021C000050505060000F8888888F8050808060057
:1021D000002050505070F8F8700705050900001CE9
:1021E000FE8282FE050808060000885020882050E4
:1021F0008888060808060000489048FCFC783030C3
:10220000060808060000244824FCFC783030060547
:1022100005060000FCFC783030060202060000FCD7
:10222000FC06060606000048904890FCFC060606E0
:1022300006000024482448FCFC070707070000822A
:10224000443828384482070707070000101038EE8A
:10225000381010FFFFFFFFFFFFFFFFFFFFFFFFFF33
:10226000FFFFFF00000005040001060605020080D4
:102270008080800080030303050103A0A0A0050562
:102280000505000050F850F85005050505000070E0
:10229000A070287004060605000080902040901071
:1022A00004050505000040A040A0500103030502FD
:1022B0000380808002060605010040808080804007
:1022C00002060605010080404040408003050505E8
:1022D0000100A040E040A00505050500002020F811
:1022E00020200303030501FF604080040101050075
:1022F00002F0020202050100C0C00404040500014E
:102300001020408003060605010040A0A0A0A040C8
:1023100003060605010040C0404040E004060605F3
:1023200000006090102040F0040606050000F01048
:10233000601090600406060500002060A0F02020D8
:10234000040606050000F080E01090600406060513
:1023500000006080E0909060040606050000F01028
:1023600020204040040606050000609060909060C8
:1023700004060605000060909070106002050505D7
:102380000100C0C000C0C00306060500FF60600079
:1023900060408003050505010020408040200403C3
:1023A00003050001F000F003050505010080402051
:1023B000408003060605010040A0204000400406BE
:1023C000060500006090B0B08060040606050000BD
:1023D000609090F09090040606050000E090E09078
:1023E00090E004060605000060908080906004067E
:1023F00006050000E090909090E0040606050000BD
:10240000F080E08080F0040606050000F080E080A7
:102410008080040606050000609080B0907004067D
:10242000060500009090F0909090030606050100CC
:10243000E040404040E00406060500001010101087
:10244000906004060605000090A0C0C0A09004069D
:10245000060500008080808080F0040606050000EC
:1024600090F0F090909004060605000090D0D0B057
:10247000B0900406060500006090909090600406FD
:1024800006050000E09090E080800407070500FF4B
:1024900060909090D06010040606050000E09090D7
:1024A000E0A09004060605000060904020906003C4
:1024B0000606050100E040404040400406060500D5
:1024C0000090909090906004060605000090909017
:1024D000906060040606050000909090F0F0900473
:1024E00006060500009090606090900306060501C6
:1024F00000A0A0A0404040040606050000F0102007
:102500004080F0030606050100E080808080E00442
:10251000040405000180402010030606050100E0C8
:1025200020202020E003020205010440A004010154
:10253000050000F0020202050104804004040405C5
:1025400000007090B0500406060500008080E09006
:1025500090E0030404050000608080600406060526
:10256000000010107090907004040405000060B02A
:10257000C060040606050000205040E0404004050D
:10258000050500FF7090608070040606050000805D
:1025900080E09090900306060501004000C0404096
:1025A000E00307070501FF2000202020A0400406CB
:1025B000060500008080A0C0A0900306060501006B
:1025C000C040404040E0040404050000A0F09090AA
:1025D000040404050000E090909004040405000049
:1025E000609090600405050500FFE09090E0800495
:1025F00005050500FF7090907010040404050000AC
:10260000E090808004040405000070C030E00406FF
:10261000060500004040E04040300404040500008E
:1026200090909070030404050100A0A0A040040451
:10263000040500009090F0F0040404050000906090
:1026400060900405050500FF9090502040040404AC
:10265000050000F02040F00306060501002040C000
:1026600040402001060605020080808080808003B3
:10267000060605010080406040408004020205001B
:102680000450A0FFFFFFFFFFFFFFFFFFFFFFFFFF63
:10269000FFFFFFFFFFFFFFFFFFFFFFFFFFFFFFFF4A
:1026A000FFFFFFFF00000005040001060605020011
:1026B0008000808080800406060500FF2070A0A0B6
:1026C00070200405050500003040E040B005050518
:1026D0000500008870507088030606050100A0A060
:1026E00040E0404001050505020080800080800335
:1026F00007070501FF6080C0A06020C0030101053D
:102700000105A00507070500FF7088A8C8A8887004
:1027100003030305000360A06005030305000148EF
:102720009048040202050001F010030101050102B6
:10273000E00507070500FF7088E8C8C88870040135
:1027400001050005F003030305010340A040050651
:10275000060500002020F82020F8020404050102EC
:10276000C04080C0020404050102C0C040C0020293
:102770000205010440800405050500FF909090E0EB
:102780008004060605000070D0D0505050020202AE
:10279000050102C0C00202020501FF4080030404DB
:1027A00005010240C040E003030305000340A040D0
:1027B0000503030500019048900407070500FF800A
:1027C0008080903070100407070500FF808080B083
:1027D0001020300407070500FFC0C040D030701043
:1027E00003060605010040004080A04004060605DF
:1027F0000000609090F09090040606050000609044
:1028000090F09090040606050000609090F0909083
:10281000040606050000609090F0909004060605FE
:102820000000906090F09090040606050000606043
:1028300090F0909004060605000070A0B0E0A0B0F3
:102840000407070500FF6090808090604004060642
:10285000050000F080E08080F0040606050000F02E
:1028600080E08080F0040606050000F080E08080B3
:10287000F0040606050000F080E08080F003060604
:10288000050100E040404040E0030606050100E08D
:1028900040404040E0030606050100E04040404063
:1028A000E0030606050100E040404040E004060663
:1028B000050000E050D05050E0040606050000B0CE
:1028C00090D0B0B090040606050000609090909003
:1028D0006004060605000060909090906004060673
:1028E000050000609090909060040606050000606E
:1028F0009090909060040606050000906090909083
:102900006004040405000090606090040606050061
:102910000070B0B0D0D0E0040606050000909090A2
:1029200090906004060605000090909090906004DE
:102930000606050000909090909060040606050041
:1029400000900090909060030606050100A0A0A0F2
:1029500040404004060605000080E090E0808004CE
:1029600006060500006090A09090A00406060500F1
:102970000040207090B05004060605000020407012
:1029800090B05004060605000020507090B050042E
:10299000060605000050A07090B050040606050021
:1029A0000050007090B05004060605000060607092
:1029B00090B05004040405000070B0A07003050539
:1029C0000501FF608080604004060605000040208D
:1029D00060B0C060040606050000204060B0C06022
:1029E00004060605000040A060B0C06004060605AD
:1029F0000000A00060B0C060030606050100804032
:102A0000C04040E00306060501004080C04040E0B1
:102A100003060605010040A0C04040E0030606058D
:102A20000100A000C04040E0040606050000403060
:102A30006090906004060605000050A0E090909021
:102A4000040606050000402060909060040606051C
:102A500000002040609090600406060500006000C1
:102A60006090906004060605000050A060909060A1
:102A700004060605000050006090906004050505FE
:102A800000006000F0006004040405000070B0D095
:102A9000E0040606050000402090909070040606B1
:102AA000050000204090909070040606050000602C
:102AB00000909090700406060500005000909090E1
:102AC000700407070500FF20409090502040040646
:102AD000060500FF80E09090E0800407070500FFF6
:102AE00050009090502040627573793A70726F6315
:102AF000657373696E6700627573793A646F6F729C
:102B0000206F70656E00627573793A6865617469EB
:102B10006E6700627573793A7061757365642066DB
:102B20006F72207573657220696E7465726163746B
:102B3000696F6E00526573656E643A006F6B2000BA
:102B400020676F7420004572726F723A6578706505
:102B500063746564206C696E652000736B69702016
:102B6000006F6B005344206361726420696E73656B
:102B70007274656400534420636172642072656DF1
:102B80006F76656400686F6D6541786973200069D0
:102B900073506F736974696F6E416C6C6F776564A5
:102BA00020008E0F00002200250028002B002E00A0
:102BB0003100340002010000050108010B01000092
:102BC00020002300260029002C002F0032000001E5
:102BD00000000301060109010505050507050808B0
:102BE0000808020202020A0A080804040404010197
:102BF00001010101010103030303030303030407AC
:102C000007070C0C0C0C0C0C0C0C02020202060642
:102C10000606060606060B0B0B0B0B0B0B0B010235
:102C200010202008081020401020408002010201DE
:102C30000804020101020408102040808040201096
:102C400008040201800402018040201008040201EF
:102C50000804020101020408102040800102040857
:102C60001020408000000A0B02090C0D0E0807031B
:102C7000040100000000000000000000000000004F
:102C80000000000000000000000000000000000044
:102C90001211100000000000000000000000000001
:102CA0000000000000000000000002536F6674770F
:102CB000617265205265736574005761746368645E
:102CC0006F672052657365740042726F776E206F74
:102CD00075742052657365740045787465726E6111
:102CE0006C20526573657400506F77657255700083
:102CF0000D53686169205000454E4941433430000E
:102D00004D616368696E653A0056657220312E30F8
:102D10002E306465760052657065746965720000D6
:102D200000000000000000000000000000000000A3
:102D30000001FFFF0000000000078000FFFE000010
:102D4000003800000007800000C3E1F07F0FC000E2
:102D5000071F87C1FC3FC00038FFFFFFF0FE4001A6
:102D6000C3FFFFFFC1FC400F0000000007F0403F21
:102D7000FFFF80001FE0403FFFFFFFFFFF80403F5D
:102D8000FFFFFFFFFF00403FFFFFFFFFFE0040305F
:102D9000000001FFFC04403000000000FC0C40304B
:102DA00000000000381C403000000000383E403079
:102DB00000000000387E4030FFFF800038FE4030C9
:102DC000FFFFF80038FE4030FFFFFE0038E64030DD
:102DD000FFFFFF0038E64030FFFFFF8038C640307D
:102DE000FFFFFF8038C64030FFBFFF8038C440304F
:102DF000FF80FFC038C44030FF80FFC038C440307F
:102E0000FF807FC038CC4030FF807FC038FC40302E
:102E1000FF807FC038F84030FF80FFC038F8403076
:102E2000FFFFFFC038F04030FFFFFF8038E0403048
:102E3000FFFFFF8038E04030FFFFFF0038C0403028
:102E4000FFFFFE0038C04030FFFFF00038C04030C8
:102E5000FF9FF00038C04030FF8FFC0038C040308A
:102E6000FF87FC0038C04030FF87FE0038C040308C
:102E7000FF83FF0038C08030FF83FF0038C0803000
:102E8000FF81FF8038C10030FF81FF8038C20030F1
:102E9000FF80FFC038820030FF80FFC038840030E0
:102EA000FF807FE0380800307F807FE03808003006
:102EB0000F803FE03810003000003FF0381000383D
:102EC000000003F038200038000000003840003CCB
:102ED000000000003840003FF80000003980003F4B
:102EE000FFF800003D000000FFFFF8007F00000039
:102EF00007FFFFF87E0000000007FFFFFC00000056
:102F0000000003FFF80000000000000DF8000000C2
:102F1000000000000000000000000000000000466B
:102F20007265652052414D3A008200000100A22BDB
:102F30004E65656473206C616E67756167652073AB
:102F4000656C656374696F6E007374617274000000
:102F5000002020203F2E3F3F0020486F6D696E67A4
:102F600000206A616D200020646563200020646594
:102F7000662000040003000000003FCDCC4C3D0A59
:102F8000D7A33B6F12033A25506E002550702525BC
:102F900025004C617965722025506C2F25504C001E
:102FA000456E6453746F703A2564700053657420E5
:102FB0005A206F66667365743A2554326D6D0053FE
:102FC00065742059206F66667365743A2554316DB7
:102FD0006D005365742058206F66667365743A25DA
:102FE00054306D6D00536574207072696E74206F7B
:102FF000666673657473005A2D70726F626520681F
:1030000065696768743A257A68002544332033205F
:10301000636F7069657300254432203220636F70DE
:1030200069657300254431203120636F7079002574
:103030004430204E6F20636F7069657300255835EA
:103040002053656C65637420657874722E20360099
:103050002558342053656C65637420657874722E2E
:103060002035002558332053656C656374206578DE
:1030700074722E2034005475726E20657874722E2E
:103080002036206F6666005475726E206578747203
:103090002E2035206F6666005475726E2065787438
:1030A000722E2034206F66660054656D702E2036B7
:1030B000203A2565352F25453502430054656D704E
:1030C0002E2035203A2565342F25453402430054FF
:1030D000656D702E2034203A2565332F2545330247
:1030E0004300202542436D6D000525656302000500
:1030F0002565632F254563020000256F7300255564
:1031000066206D207072696E7465640025556620B6
:103110006D0025557400583A25783020593A2578A5
:1031200031004D756C3A20256F6D202020453A25E1
:103130007834005A3A2578322020427566203A20A9
:10314000256F4200422565422F2545620200052574
:1031500065632F25456302422565422F254562029E
:1031600000256F73004275663A20256F42004D7549
:103170006C3A20256F6D25252520FD202020453A1D
:10318000202578346D00466C6F773AFD20256F66F8
:103190002525252020205A3A25783200202020207D
:1031A000202020202020202020593A257831000A94
:1031B000202565302F254530B020583A257830003D
:1031C0004C616E677561676500437573746F6D3A26
:1031D0002542436D6D00437573746F6D00476C75C8
:1031E0006520737469636B00477265656E20504596
:1031F00054207461706500426C7565207061706563
:10320000722074617065004B6170746F6E0042755E
:10321000696C6454616B004E6F20636F6174696EFA
:1032200067000042656420636F6174696E67207394
:10323000657420746F0042656420636F6174696E09
:1032400067005374616E64627900457874727564C6
:103250006572206A616D0074656D70657261747568
:10326000726573202E2E2E005761697420666F726E
:103270002074617267657400657874727564657234
:10328000732E00436C69636B20746F2072656865F0
:1032900061740049676E6F7265204D31303620636E
:1032A0006D642025466900536572766F20706F73D8
:1032B0002E3A20256F53004175746F6C6576656CEE
:1032C0003A20256C6C00436C69636B207768656EEF
:1032D00020646F6E650066696C616D656E74207543
:1032E000702F646F776E00526F7461746520746F15
:1032F000206D6F7665004368616E67652066696C56
:10330000616D656E74004368616E67652066696C07
:10331000616D656E74005A206261627973746570C4
:103320002E3A256F596D6D0053746F70205072697D
:103330006E7400536C6F7742616E67004465616420
:103340002074696D650041545820706F7765722054
:103350006F6E2F6F6666007072696E7465640046EA
:10336000696C616D656E74207072696E746564005D
:103370005072696E74696E672074696D6500003AF9
:1033800000206461797320005072696E7465722048
:1033900072656164792E0053442063617264206910
:1033A0006E736572746564005344206361726420B7
:1033B00072656D6F7665640057616974207265741B
:1033C000722E3A255855206D6D005761697420742E
:1033D000656D702E202558540243004C6576656C4F
:1033E0002064656C74610043616C63756C61746525
:1033F000206C6576656C696E670053657420503388
:103400000053657420503200536574205031005AC7
:103410002063616C69622E00536574205A3D300050
:103420005265736574206D6561732E0053686F7704
:10343000206D6561732E00466C6F77206D756C2E64
:10344000203A256F66252525005370656564206D3B
:10345000756C2E3A256F6D2525250020423A25658D
:10346000622F25456202437E256F620045333A256F
:1034700065322F25453202437E256F320045323AB0
:103480002565312F25453102437E256F31004531B9
:103490003A2565302F25453002437E256F300020C8
:1034A000453A2565632F25456302437E256F43001A
:1034B0004275666665723A256F420055706C6F61A1
:1034C00064696E672E2E2E006C6F616465642066E1
:1034D0002E20454550524F4D00436F6E666967750B
:1034E000726174696F6E0073746F72656420696EC7
:1034F00020454550524F4D00436F6E6669677572A7
:103500006174696F6E0053746570706572206469D0
:103510007361626C6564004B696C6C65640048653E
:103520006174696E67206265640048656174696EE4
:103530006720657874727564657200416374696FA1
:103540006E3A256C61005049440042616E674261E9
:103550006E6700592D4F66667365743A2558790079
:10356000582D4F66667365743A2558780050494463
:10357000204D61783A255844004472697665204DA3
:1035800061783A25584D004472697665204D696E20
:103590003A25586D0050494420443A25586400505B
:1035A000494420493A25586900436F6E74726F6C24
:1035B0002050574D3A25584D004465616474696D3B
:1035C000653A2558700050494420503A25587000FB
:1035D000436F6E74726F6C3A25586800416476616F
:1035E0006E636520717561643A25586100416476A7
:1035F000616E6365206C696E3A25586C0053746186
:10360000622E54696D653A25587700416363656C95
:103610003A255841004D61782046523A25584600D7
:1036200053746172742046523A255866005374658B
:1036300070732F4D4D3A2553650042617564726178
:1036400074653A256F630047656E6572616C005B57
:103650006D696E5D20303D4F6666004469732E20B3
:1036600061667465723A20256970004D61782E207C
:10367000696E616374697665005B6D696E5D2030AB
:103680003D4F6666004469732E2061667465723A28
:1036900020256973005374657070657220696E61CE
:1036A0006374697665005365742066616E20667583
:1036B0006C6C005365742066616E203735252525B6
:1036C000005365742066616E203530252525005332
:1036D00065742066616E203235252525005475728B
:1036E0006E2066616E204F66660046616E207370C4
:1036F0006565643A2546732525250046616E20736D
:1037000070656564004D696E3A25737A204D617865
:103710003A25735A005A3A257832206D6D004D696A
:103720006E3A257379204D61783A25735900593ADC
:10373000257831206D6D004D696E3A257378204DE6
:1037400061783A25735800583A257830206D6D001D
:103750004D696E3A25737A204D61783A25735A0087
:103760005A3A257832206D6D004D696E3A2573798D
:10377000204D61783A25735900593A257831206DEA
:103780006D004D696E3A257378204D61783A257346
:103790005800583A257830206D6D003120636C69EF
:1037A000636B203D2031206D6D00453A2578332034
:1037B0006D6D00004D617820656E6473746F703AB2
:1037C00025735A004D696E20656E6473746F703A8C
:1037D00025737A005A3A257832206D6D00004D61CC
:1037E0007820656E6473746F703A257359004D6963
:1037F0006E20656E6473746F703A25737900593A60
:10380000257831206D6D00004D617820656E647300
:10381000746F703A257358004D696E20656E64733D
:10382000746F703A25737800583A257830206D6DA2
:1038300000004D617820656E6473746F703A257373
:103840005A004D696E20656E6473746F703A25730B
:103850007A005A3A257832206D6D2025647A2564E5
:103860005A00004D617820656E6473746F703A255C
:103870007359004D696E20656E6473746F703A25DC
:10388000737900593A257831206D6D2025647925AA
:10389000645900004D617820656E6473746F703AEE
:1038A000257358004D696E20656E6473746F703AAD
:1038B00025737800583A257830206D6D202564787E
:1038C00025645800486F6D653A25665A00486F6D4B
:1038D00065205A3A25665A00486F6D6520593A2589
:1038E000665900486F6D6520583A256658004D614D
:1038F000783A25667A004D6178205A3A25667A0032
:103900004D617820593A256679004D617820583A02
:103910002566780046656564726174650044656C6F
:103920006574652066696C65004D6F756E74206303
:1039300061726400556E6D6F756E742063617264A0
:1039400000436F6E74696E7565207072696E7400E5
:103950005061757365207072696E74005072696E83
:10396000742066696C6500416E7469206F6F7A65BA
:10397000004D6F76652061667465723A254F61006F
:103980004D696E2E6469737420203A254F6400429D
:1039900061636B736C2E2020203A254F62005265C4
:1039A00074726163742020203A254F7200254F32D3
:1039B000204F5053206661737400254F31204F50C3
:1039C0005320636C617373696300254F30204F503F
:1039D00053206F6666004472792072756E3A2564D2
:1039E00064004572726F7273203A25646500496EF7
:1039F000666F2020203A256469004563686F2020A7
:103A0000203A25646F004C6F616420662E20454586
:103A100050524F4D0053746F726520746F204545AE
:103A200050524F4D00416363656C65726174696FFC
:103A30006E005A2D4A65726B203A25614A004A652C
:103A4000726B2020203A25616A004D6F76653A2519
:103A5000615A004D6F7665205A203A25615A004D13
:103A60006F76652059203A256159004D6F766520A3
:103A700058203A256158005072696E743A25617A6F
:103A8000005072696E74205A3A25617A005072694A
:103A90006E7420593A256179005072696E7420580D
:103AA0003A25617800536574204F726967696E002A
:103AB0002558322053656C65637420657874722EC6
:103AC0002033002558312053656C65637420657878
:103AD00074722E2032002558302053656C65637453
:103AE00020657874722E2031005475726E206578CE
:103AF00074722E2033206F6666005475726E2065D6
:103B00007874722E2032206F6666005475726E20B3
:103B1000657874722E2031206F66660054656D7072
:103B20002E2033203A2565322F254532024300549A
:103B3000656D702E2032203A2565312F25453102E2
:103B4000430054656D702E2031203A2565302F25B5
:103B500045300243004265642074656D703A256506
:103B6000622F254562024300457874722E20706FE3
:103B7000736974696F6E005A20706F732E206661CE
:103B80007374005A20706F736974696F6E005920E6
:103B9000706F732E2066617374005920706F7369A3
:103BA00074696F6E005820706F732E206661737495
:103BB000005820706F736974696F6E004469736197
:103BC000626C652073746570706572005365742053
:103BD000746F206F726967696E00436F6F6C646FFA
:103BE000776E004C69676874733A256C6F00507289
:103BF0006568656174204142530050726568656173
:103C00007420504C4100486F6D65205A00486F6D1C
:103C100065205900486F6D65205800486F6D65201C
:103C2000616C6C00486F6D652064656C7461004464
:103C30006562756767696E670053442063617264EB
:103C400000457874727564657200506F73697469A9
:103C50006F6E0053657474696E677300256F65003D
:103C6000517569636B2073657474696E6773004284
:103C700061636B2001002A2A2A2A204552524F52A2
:103C8000202A2A2A2A004E6F20534420636172643E
:103C90000049646C65005072696E74696E6700500B
:103CA00072696E74696E672E2E2E004E6F00596514
:103CB00073004E2F41004F6666004F6E00BA3CB64F
:103CC0003CB23CAE3CAB3C9F3C963C913C863C7647
:103CD0003C6F3C603C5C3C533C4A3C413C393C2F93
:103CE0003C243C1B3C143C0D3C063CFA3BEE3BE3C5
:103CF0003BDA3BCC3BBC3BB13BA53B9A3B8E3B8389
:103D00003B773B683B553B423B2F3B1C3B0B3BFA15
:103D10003AE93AD63AC33AB03AA53A993A8D3A8155
:103D20003A773A6B3A5F3A533A4A3A3E3A323A2550
:103D30003A153A063AFA39EE39E239D639CA39BA79
:103D400039AD399E398F398039713967395C3950CD
:103D5000394139343929391D3914390A390039F6CC
:103D600038EE38E338D838CD38C438B438A438946D
:103D7000389338833873386338623852384238326F
:103D80003831382838183808380738FE37EE37DE2B
:103D900037DD37D437C437B437B337AA379B3792B8
:103DA0003782377937693760375037473737372E9B
:103DB000371E3715370537FB36EA36DD36CF36C1C5
:103DC00036B336A6369536853679366B365B364F42
:103DD0003647363A362D36203615360B36FD35ED5C
:103DE00035DC35D035C635B935A9359F359535879C
:103DF0003579356D35603553354A3546353B352A8D
:103E0000351E3517350635F834E734D934C834BB98
:103E100034B0349F348E347D346C345B3449343761
:103E2000342C34203418340F3408340134FA33E796
:103E300033DB33CA33B833A8339733883381337FC6
:103E4000337E3370335F33573346333C3333332859
:103E50003316330633F632E732D632C632B732A7DC
:103E600032933283327832683257324A32423236B3
:103E7000322332223217320E320732F731E831DD87
:103E800031D631C931C031AF319C3186316E3165A7
:103E90003161314E31443133312231163112310C1E
:103EA00031FE30FA30F930EF30E930E230CF30BC5B
:103EB00030A930983087307630633050303D302F25
:103EC00030243017300A30F72FE52FD22FBF2FAC18
:103ED0002FA02F922F8B2F872FFFD0FFE0FFCFFF38
:103EE00064FFD1FF32380C060201FF64FFD0FFFEF1
:103EF00000FFBD3C000000000000000000000000CA
:103F0000000000000000000000000000210024006C
:103F100027002A002D0030003300010100000401B9
:103F200007010A0101060C00FE030229036300FFDA
:103F3000000AFE0800025767A80088008800A8024F
:103F40005767F088E8A8E888F002576770A8F8A8D3
:103F5000F8A87002576770880808088870124565CD
:103F60006090109060015868708880808878080898
:103F700002576720202020A87020026767F8FCFC09
:103F80009CFCFCF802576770F8F8A8F8F870FFFF7F
:103F9000FFFFFFFFFF0355652040F84020025767F1
:103FA0002070A8202020200355652010F810200242
:103FB000576720202020A8702004536350F8500237
:103FC00057672070A820A87020025969C0F0E0A0AF
:103FD00020101008080259691878382820404080BD
:103FE0008002596980804040202838781802596939
:103FF0000808101020A0E0F0C00365652848FC50B8
:10400000300365653028FC4850046363C0D86404FD
:1040100063630C6C980365652850FC50280258684F
:104020002070A870A82020200365655028FC285027
:10403000025868202020A870A870200365652448D5
:10404000F0482403656590483C489003556528482E
:10405000F848280257672070A8202020F8035565EB
:10406000A090F890A0025767F8202020A8702002A6
:1040700057672070A820A870F80365652844F840A9
:104080002003656550887C0810036565204CFC485A
:104090002803656510C8FC485003646448DCEC489C
:1040A0000365650858FC68400257678090B0D0905F
:1040B00038100258682040F8482808080802586854
:1040C0002010F890A08080800258680808082848CE
:1040D000F840200257678080A090F81020035464B5
:1040E000F0103810035565080848F840035565304E
:1040F0004848E848035565609090B810025868F841
:1041000080E0C0A0201010025969A0C0F8C0A81813
:10411000F818280256663830A8888870025666E07B
:1041200060A88888700553632040F8035363F84003
:104130002022386880C0A08080808080023868207B
:1041400060A020202020200553632010F803536333
:10415000F810202238688080808080A0C0800238DB
:10416000682020202020A060200259692010F8102B
:104170002040F8402002586850F05050505078507D
:104180000259692040F8402010F810200259692097
:1041900040F8402040F8402002586850F8505050F5
:1041A0005050500259692010F8102010F8102002C9
:1041B0005868505050505050F8500257672040F8FF
:1041C00000F810200257672010F800F8402002671E
:1041D0006714287C907C20500267670858FCA4FC78
:1041E0006840026767A050F824F81028035565203E
:1041F000788078200257672050D85050505003558F
:104200006520F008F02002576750505050D85020D9
:1042100003656548FC84FC480258682050D850501B
:10422000D85020026666F8A0D0A894080266667C82
:10423000142C54A44002666640A4542C147C0266DC
:10424000660894A8D0A0F8026767103C40FC403C88
:104250001002676720F008FC08F02003646440E85F
:10426000D440036464085CAC080258682070A8203D
:10427000702070200258682070207020A8702003E1
:1042800065652040D44020025868207088200020B6
:1042900000200365651008AC081002586820002053
:1042A0000020887020035565A0C0F8C0A0035565A4
:1042B0002818F8182803556520788878200258684F
:1042C0002050D8505050507003556520F088F02091
:1042D0000258687050505050D850200259692050F0
:1042E000D85070007050700259692050D85050500A
:1042F000D888F80259692050F8885050D888F802B8
:1043000059692070F8707070F8A8F8025969205047
:10431000D850D8505050700259692050D850D850B9
:10432000D888F8035565A0F088F0A0025868F88096
:10433000B0A090100808025868808040482868089B
:10434000F80258682050D85050D8502003656510A6
:1043500068FC6810025868507850505050F0500275
:10436000596910F81010F81010F810036565284806
:10437000FC48280365655048FC4850036565307863
:10438000FC78300365653858FC58380365657068FB
:10439000FC68700365653078FC78300355652060F3
:1043A000B860200355652030E8302003656530781B
:1043B000B47830066666FCFCFCFCFCFC006262FC27
:1043C000FC006363FCFCFC006565FCFCFCFCFC0081
:1043D0006666FCFCFCFCFCFC006868FCFCFCFCFC6D
:1043E000FCFCFC006969FCFCFCFCFCFCFCFCFC002B
:1043F0006B6BFCFCFCFCFCFCFCFCFCFCFC006C6C3B
:10440000FCFCFCFCFCFCFCFCFCFCFCFC005C6CF81C
:10441000F8F8F8F8F8F8F8F8F8F8F8004C6CF0F05C
:10442000F0F0F0F0F0F0F0F0F0F0004C6CF0F0F0A4
:10443000F0F0F0F0F0F0F0F0F0003C6CE0E0E0E0E4
:10444000E0E0E0E0E0E0E0E0002C6CC0C0C0C0C014
:10445000C0C0C0C0C0C0C0002C6CC0C0C0C0C0C004
:10446000C0C0C0C0C0C0001C6C80808080808080C4
:104470008080808080303C6CE0E0E0E0E0E0E0E0E4
:10448000E0E0E0E0016B6BA8005400A8005400A835
:104490000054006C6CA854A854A854A854A854A85C
:1044A00054006C6C54FCA8FC54FCA8FC54FCA8FC04
:1044B0000A6262FCFC501C6C80808080808080805E
:1044C00080808080003666E0E0E0E0E0E030366644
:1044D000E0E0E0E0E0E0063666E0E0E0E0E0E000BA
:1044E0006C6CE0E0E0E0E0E0FCFCFCFCFCFC006C60
:1044F0006CE0E0E0E0E0E01C1C1C1C1C1C006C6C90
:10450000FCFCFCFCFCFCE0E0E0E0E0E0006C6CFCAF
:10451000FCFCFCFCFC1C1C1C1C1C1C363666E0E075
:10452000E0E0E0E0006C6C1C1C1C1C1C1CE0E0E0EB
:10453000E0E0E0006C6C1C1C1C1C1C1CFCFCFCFC6B
:10454000FCFC025565F8F8F8F8F8025565F888881B
:1045500088F80255657088888870025565F888A8C3
:1045600088F8025565F888F888F8025565F8A8A813
:10457000A8F8025565F8A8F8A8F8025565F8C8A883
:1045800098F8025565F898A8C8F8025565F8D8A8B3
:10459000D8F8143363E0E0E0143363E0A0E003658F
:1045A00065FCFCFCFCFC036565FC848484FC114A0E
:1045B0006AF0F0F0F0F0F0F0F0F0F0114A6AF090EC
:1045C00090909090909090F00463633C78F0046336
:1045D000633C48F002576720207070F8F8F80257E3
:1045E00067202050508888F803556520207070F8A7
:1045F00003556520205050F812476780C0E0F0E076
:10460000C08012476780C0A090A0C080133565802D
:10461000C0E0C08013356580C0A0C080036565C060
:10462000F0FCF0C0036565C0B08CB0C0025767F8FD
:10463000F8F870702020025767F8888850502020C2
:10464000025565F870702020025565F85050202002
:10465000124767103070F0703010124767103050FA
:10466000905030101335652060E0602013356520D0
:1046700060A060200365650C3CFC3C0C0365650C88
:1046800034C4340C0355652070F870200355652040
:10469000508850200355652050A85020026666308F
:1046A00048B4B44830025767205050885050200218
:1046B000666630488484483002666620088004407C
:1046C0001002556570A8A8A8700257677088A8D80E
:1046D000A888700266663078FCFC78300266663026
:1046E00068E4E4683002666630589C9C5830026684
:1046F00066304884FC78300266663078FC84483046
:1047000002666630589C8448300266663068E484ED
:10471000483012596908387878F87878380802599A
:104720006980E0F0F0F8F0F0E080006C6CFCFCFCDC
:10473000FCCC8484CCFCFCFCFC006C6CFCFCFCCC55
:10474000B47878B4CCFCFCFC066666FCFCFCCCB40B
:104750007800666678B4CCFCFCFC053363204080AE
:1047600035336380402032336320408002336380DE
:1047700040200563633048840263638448300255F7
:104780006508183878F802556580C0E0F0F80255E1
:1047900065F8F0E0C080025565F8783818080255D1
:1047A000657088888870025565F8E8E8E8F8025571
:1047B00065F8B8B8B8F8025565F8F8E8C8F80255D1
:1047C00065F898B8F8F8025565F8A8A8A8F802574F
:1047D0006720205070A888F802576720207070E882
:1047E000E8F802576720207070B8B8F802676730A1
:1047F000488484844830025565F8A8E888F8025552
:1048000065F888E8A8F8025565F888B8A8F8025550
:1048100065F8A8B888F802556570A8E88870025550
:10482000657088E8A8700255657088B8A870025550
:104830006570A8B88870035565F890A0C0800355CE
:1048400065F84828180803556580C0A090F81444FE
:1048500064F09090F0134464F0F0F0F0144464F0CD
:104860009090F0144464F0F0F0F0035565081828B7
:1048700048F800002110422063308440A550C660F3
:10488000E770088129914AA16BB18CC1ADD1CEE10D
:10489000EFF13112100273325222B5529442F77284
:1048A000D662399318837BB35AA3BDD39CC3FFF35D
:1048B000DEE36224433420040114E664C774A44494
:1048C00085546AA54BB528850995EEE5CFF5ACC5AD
:1048D0008DD55336722611163006D776F666955664
:1048E000B4465BB77AA719973887DFF7FEE79DD7FD
:1048F000BCC7C448E5588668A778400861180228F4
:104900002338CCC9EDD98EE9AFF9488969990AA94C
:104910002BB9F55AD44AB77A966A711A500A333AC3
:10492000122AFDDBDCCBBFFB9EEB799B588B3BBB9C
:104930001AABA66C877CE44CC55C222C033C600C53
:10494000411CAEED8FFDECCDCDDD2AAD0BBD688DEC
:10495000499D977EB66ED55EF44E133E322E511EA3
:10496000700E9FFFBEEFDDDFFCCF1BBF3AAF599F3C
:10497000788F8891A981CAB1EBA10CD12DC14EF1DC
:104980006FE18010A100C230E32004502540467042
:104990006760B9839893FBA3DAB33DC31CD37FE36D
:1049A0005EF3B1029012F322D23235421452776292
:1049B0005672EAB5CBA5A89589856EF54FE52CD53D
:1049C0000DC5E234C324A0148104667447642454E2
:1049D0000544DBA7FAB79987B8975FE77EF71DC74D
:1049E0003CD7D326F2369106B01657667676154632
:1049F00034564CD96DC90EF92FE9C899E9898AB99D
:104A0000ABA94458654806782768C018E108823881
:104A1000A3287DCB5CDB3FEB1EFBF98BD89BBBABAC
:104A20009ABB754A545A376A167AF10AD01AB32AD1
:104A3000923A2EFD0FED6CDD4DCDAABD8BADE89DFC
:104A4000C98D267C076C645C454CA23C832CE01C21
:104A5000C10C1FEF3EFF5DCF7CDF9BAFBABFD98F8C
:104A6000F89F176E367E554E745E932EB23ED10E71
:104A7000F01E4563686F3A00446F6E65207072697E
:104A80006E74696E672066696C65005344206572B8
:104A9000726F722066697865640053442065727293
:104AA0006F7220646964206E6F74207265636F7624
:104AB0006572210053442052656164204572726F13
:104AC000720053442072656164206572726F7200D7
:104AD0007761697400466F726D6174206572726FE0
:104AE0007200205200204A0020490020500020532C
:104AF00000204600204500205A0020590020580080
:104B0000205072696E7465722073746F7070656482
:104B100020616E64206865617465727320646973D6
:104B200061626C65642064756520746F20746869C7
:104B300073206572726F722E2046697820657272DA
:104B40006F7220616E642072657374617274207775
:104B5000697468204D3939392E00666174616C3A88
:104B600000005344207072696E742073746F70700B
:104B7000656420627920757365722E0080250000BF
:104B800040380000004B00008070000000960000DC
:104B9000C0DA000000E10000002C010008B20100B2
:104BA00000C2010000F401000084030090D0030063
:104BB00000E803000008070020A1070000100E0015
:104BC00040420F0060E316000000000055495F41BD
:104BD0004354494F4E5F45504F534954494F4E201F
:104BE0000055495F414354494F4E5F5A504F534916
:104BF00054494F4E5F46415354200055495F41434D
:104C000054494F4E5F59504F534954494F4E5F4698
:104C1000415354200055495F414354494F4E5F581A
:104C2000504F534954494F4E5F464153542000550D
:104C3000495F414354494F4E5F5A504F534954497D
:104C40004F4E200055495F414354494F4E5F5950E4
:104C50004F534954494F4E200055495F41435449F1
:104C60004F4E5F58504F534954494F4E2000756482
:104C70002073746172743A000000420FA107160598
:104C8000D0030D038B022E02E801B20186016301FD
:104C900045012C0117010401F40000000000000090
:104CA0000000000000000000000024F403D950C3FD
:104CB0008EB1C2A23D96828B3582127AE372816CEC
:104CC000CB66A861015DC758EB546151204E1E4B65
:104CD0005648C14559431A41013F093D2F3B71399F
:104CE000CD374036C93465331432D430A32F802EEB
:104CF0006B2D632C672B752A8E29B028DC27102793
:104D00004B268F25D9242B248223E0224322AC2159
:104D10001A218D200420801F001F841E0C1E971D49
:104D2000261DB81C4E1CE61B821B201BC11A641AD0
:104D30000A1AB2195D190A19B9186A181C18D1177C
:104D400088174017FA16B51673163116F115B315F4
:104D500076153A150015C7148F1458142214EE1343
:104D6000BA13881356132513F612C71299126C1230
:104D700040121512EB11C111981170114811211137
:104D8000FB10D610B1108D106910461024100210BF
:104D9000E10FC00FA00F800F610F420F230F060F0E
:104DA000E80ECB0EAF0E930E770E5C0E410E270E63
:104DB0000D0EF30DDA0DC10DA80D900D780D600DDF
:104DC000490D320D1B0D050DEF0CD90CC30CAE0CAB
:104DD000990C850C700C5C0C480C350C210C0E0CDD
:104DE000FB0BE80BD60BC40BB20BA00B8E0B7D0B91
:104DF0006B0B5A0B4A0B390B290B180B080BF80AD3
:104E0000E90AD90ACA0ABB0AAC0A9D0A8E0A800AB4
:104E1000710A630A550A470A390A2C0A1E0A110A3E
:104E2000040AF709EA09DD09D009C409B709AB0981
:104E30009F09920987097B096F09630958094C0981
:104E4000410936092B09200915090A090009F50845
:104E5000EB08E008D608CC08C208B808AE08A408D9
:104E60009A08900887087D0874086B08610858083C
:104E70004F0846083D0834082C0823081A08120871
:104E800009080108F807F007E807E007D807D00786
:104E9000C807C007B807B007A807A1074361703A61
:104EA00000436F6E6669673A00496E666F3A004567
:104EB00072726F723A00494E46004E414E00507277
:104EC0006F746F636F6C2076657273696F6E2063A9
:104ED00068616E6765642C20757067726164696EC5
:104EE00067005472616E73666F726D6174696F6E84
:104EF000206D61747269783A004175746F6C6576E3
:104F0000656C696E672064697361626C65640041F9
:104F100075746F6C6576656C696E6720656E61622D
:104F20006C6564004175746F6C6576656C206D61AD
:104F3000747269782072657365740025206F6E2025
:104F400000202F20004A616D207369676E616C201C
:104F500073746570733A0046696C616D656E742098
:104F6000736C697070696E6700696D706F727461DF
:104F70006E743A4578747275646572206A616D204A
:104F80006465746563746564004865617465722F57
:104F900073656E736F72206661696C75726500442B
:104FA000697361626C696E6720616C6C2068656111
:104FB000746572732064756520746F206465746510
:104FC000637465642073656E736F722064656665D3
:104FD00063742E00206465672E204300206D656198
:104FE000737572656420004572726F723A436F7513
:104FF0006C64206E6F7420686F6C642074656D70D3
:10500000657261747572652000206D7300206166A1
:1050100074657220004572726F723A54656D702E1D
:105020002072616973656420746F20736C6F772ED2
:105030002052697365203D20004F6E6520686561D0
:10504000746572207365656D73206465636F757038
:105050006C65642066726F6D20746865726D69732B
:10506000746F72202D2064697361626C696E6720B1
:10507000616C6C20666F72207361666574792100C3
:10508000486561746572206465636F75706C6564F2
:105090000020453A00205A3A0020593A00583A0078
:1050A00020524157002044303A0020403A00202F3F
:1050B00000543A0053706565644D756C7469706C8A
:1050C000793A00466C6F774D756C7469706C793AFB
:1050D0000046616E73706565643A00206D696E000C
:1050E00020686F757273200020646179732000500E
:1050F00072696E74696E672074696D653A006D201F
:10510000005072696E7465642066696C616D656ECD
:10511000743A007C3C3E5E2B3D3F2F5B5D3B2C2A6E
:10512000225C002500F00F2C00A00F3300500F3A36
:1051300000000F4300B00E4D00600E5800100E63CB
:1051400000C00D7000700D7E00200D9000D00CA3EB
:1051500000800CB900300CD200E00BF000900B1175
:1051600001400B3701F00A6301A00A9801500AD6EA
:1051700001000A1E02B0096F026009D00210094046
:1051800003C008C103700854042008FC04D007B70A
:105190000580078C0630076807E006550890064E24
:1051A0000940064B0AF005320BA005140C5005D837
:1051B0000C00058C0DB004180E60048F0E1004F066
:1051C0000EC0033A0F7003730F2003BD0F8002DC83
:1051D0000F0802E90FB801F20F6801F80F1801FC7F
:1051E0000FC800FF0F00004800901A4800A00F5899
:1051F00000000F6C00600E8400C00DA400200DD0D4
:1052000000800C1001E00B5801400BC001A00A4CBB
:1052100002000A08036009F803C00828052008B046
:105220000680075408E006180A4006C80BA005309F
:105230000D0005400E6004FC0EC003740F2003BC7B
:105240000F8002E00FE001F40FF000FB0FC800FC3C
:105250000FA0000400501D7C00D009A4001009CC50
:10526000008008F40010081C01B807440168076CAE
:105270000128079401E806BC01B806E40188060C81
:10528000026006340238065C0218068402F005AC9F
:1052900002D805D402B805FC0298052403800574E1
:1052A000035005C4032805140400056404D804B49D
:1052B00004B0042C058004A40558041C062804949A
:1052C0000600040C07D803AC07A8034C087803ECCD
:1052D0000848038C092003A40AD0021C0BA802ACC6
:1052E0000C2802FC0C0802C40DB801140E9801B47D
:1052F0000E38012C0FE000540FB8007C0F8800A47A
:105300000F4800F40F28FFFC0FC0F9000000008CCC
:10531000030800AE035000D603A000F703F0001806
:10532000044001380490015904E0017A0430029AE3
:10533000048002BB04D002FC0470032605C003866F
:105340000630079709A00F750D201C520E401F1F35
:105350000F6022FF0F803E0400081D900058091CBA
:1053600001B007A801C80634023006C002C0054CCF
:10537000036805D80318056404D004F00498047C7D
:1053800005600408063004940600042007D003AC2E
:1053900007A80338088003C408580350093003DC09
:1053A000090803680AD802F40AB002800B88020CCC
:1053B0000C6002980C3002240DF801B00DC0013CC5
:1053C0000E8001C80E3001540FB800B40F2800E061
:1053D0000F00000400401D900060091C01B007A8E8
:1053E00001D00634023806C002C8054C036805D84F
:1053F0000318056404D804F00498047C05600408CC
:10540000063004940600042007D003AC07A8033834
:10541000088003C408580350093003DC09080368F6
:105420000AE002F40AB802800B88020C0C600298B1
:105430000C3002240DF801B00DC0013C0E8001C8F3
:105440000E3001540FB800B40F2800E00F00000424
:10545000000016D800C006AC0178058002C00454D4
:105460000348042804E803FC049803D0055003A46F
:105470000618037807D8024C08A80220097002F425
:10548000093802C80A08029C0BD001700C90014434
:105490000D5001180EF800EC0E8800C00F0000043B
:1054A00000681D4C00500B94005809DC0050082483
:1054B00001A8076C012807B401C006FC017006446E
:1054C0000228068C02F005D402B8051C0388056486
:1054D000035805AC033005F40310053C04E80484CC
:1054E00004C804CC04A804140590045C057004A44A
:1054F000055804EC053804340620047C060804C46E
:1055000006F0030C07D8035407C8039C07B003E454
:105510000798032C08800374087003BC0858030420
:105520000948034C09300394091803DC09080324D3
:105530000AF0026C0AE002B40AC802FC0AB0024493
:105540000BA0028C0B8802D40B70021C0C58026456
:105550000C4002AC0C2802F40C10023C0DF001844B
:105560000DD801CC0DB801140E98015C0E7001A489
:105570000E4801EC0E1801340FD8007C0F8800C4CF
:105580000F0800FC0F0000000000000000000000F9
:10559000000000000000000000000000000000000B
:1055A00000000000000000000000000000401F4557
:1055B0000060094F0010095C00C0086B0070087D96
:1055C0000020089200D007AC008007CC003007DE36
:1055D00000E006230190065E014006A601F005FFEB
:1055E00001A0056D025005F30200059603B0045AB0
:1055F000046004400510044806C0036E077003A849
:10560000082003EB09D002230B8002410C30023941
:105610000DE001040E9001A20E4001170FF0006989
:105620000FA000A20F5000C60F0000DD0FB0FFEB6F
:105630000F60FF0400700DD8004804AC01580380CF
:1056400002D8025403800228043802FC040002D06D
:1056500005C801A4069801780770014C084801208C
:10566000091801F409F000C80AC8009C0BA00070DA
:105670000C7000440D3800180E0000EC0EA8FFC09E
:105680000FE8FE0400001B54006009640010097458
:1056900000C008840070089C002008B800D007D81B
:1056A000008007000130072C01E00668019006AC7D
:1056B0000140060002F0056802A005E002500574F2
:1056C0000300052404B004F0046004DC051004E4C5
:1056D00006C0030408700330092003780B800260C1
:1056E0000DE001A80E4001680FA000C00F0000E807
:1056F0000F60FF0400801AD8009808AC01200780D2
:105700000250065403C80528045805FC040005D0BF
:1057100005B004A4066804780728044C08E80320B0
:1057200009B003F4097003C80A38039C0BF802702F
:105730000CB002440D6802180E0802EC0E8801C07D
:105740000F8800F00F00000000A00F5C00600969E6
:105750000010097900C0088C007008A2002008BD64
:1057600000D007DE008007050130073401E0066D38
:10577000019006B20140060702F0056D02A005E89F
:105780000250057B0300052B04B004F8046004EB11
:1057900006C003350920037F0B8002650DE001B0D0
:1057A0000E40011D0FF000480FC8006C0FA000ED67
:1057B0000F60FFFE0F48FE457874722E0045505270
:1057C0003A3320004550523A3220004550523A3187
:1057D00020004550523A3020004D61726B656420C4
:1057E000616C6C2065787472756465727320617386
:1057F00020756E6A616D6D65642E0053656C65631E
:105800007445787472756465723A003A0054617236
:1058100067657445787472004757F356835633565C
:10582000000000000000AB559F544F54D353575312
:105830000B535352E75123511C151C140000002236
:1058400043141F1F132E1B315072696E7465722032
:1058500073657420696E746F206472792072756E3E
:10586000206D6F646520756E74696C207265737449
:105870006172742100206D61726B656420646563E0
:105880006F75706C656400206D61726B6564206477
:105890006566656374003A20776F726B696E6700A6
:1058A0003A2074656D702073656E736F7220646545
:1058B00066656374006578747275646572200000B3
:1058C00000000000000000000000010000FF007A5E
:1058D000325F6D696E6D61783A007A5F6D696E3A1C
:1058E000004C2000482000795F6D696E3A00785FB7
:1058F0006D696E3A00656E6473746F7073206869C9
:10590000743A200044656275674C6576656C3A00B0
:105910005072696E7465724D6F64653A434E430010
:105920005072696E7465724D6F64653A4C6173654F
:1059300072005072696E7465724D6F64653A4646C6
:1059400046005A206A65726B2077617320746F6F0E
:10595000206C6F772C2073657474696E6720746F88
:1059600020005859206A65726B2077617320746F2C
:105970006F206C6F772C2073657474696E67207468
:105980006F20000020002F006572726F7220777206
:105990006974696E6720746F2066696C6500504990
:1059A00044204175746F74756E652066696E697305
:1059B000686564202120506C6163652074686520EF
:1059C0004B702C204B6920616E64204B6420636F08
:1059D0006E7374616E747320696E20746865204301
:1059E0006F6E66696775726174696F6E2E68206F7D
:1059F0007220454550524F4D00446F6E65207361D3
:105A000076696E672066696C652E00534420696E66
:105A10006974206661696C000046696C6520736575
:105A20006C6563746564002053697A653A00466961
:105A30006C65206F70656E65643A0066696C652EF2
:105A40006F70656E206661696C656400496E766191
:105A50006C6964206172630052656C61746976657B
:105A600020706F736974696F6E696E67004162734D
:105A70006F6C75746520706F736974696F6E696E91
:105A80006700556E6B6E6F776E20636F6D6D616E24
:105A9000643A004E414E494E495459494E46CDCC88
:105AA000CC3D0AD7233C17B7D13877CC2B3295950C
:105AB000E6241FB14F0A000020410000C842004008
:105AC0001C4620BCBE4CCA1B0E5AAEC59D743AF192
:105AD00011241FBECFEFD1E2DEBFCDBF00E00CBF6F
